:100000000C9480010C949D010C949D010C949D0115
:100010000C949D010C949D010C949D010C949D01E8
:100020000C949D010C949D010C949D010C949D01D8
:100030000C949D010C949D010C949D010C949D01C8
:100040000C949D010C949D010C949D010C949D01B8
:100050000C949D010C949D010C949D010C949D01A8
:100060000C949D010C949D01000000000000000014
:10007000002F000000000700070000147F147F1409
:1000800000242A7F2A12006264081323003649558F
:10009000225000000503000000001C224100000067
:1000A00041221C000014083E08140008083E0808FD
:1000B000000000A060000008080808080000606058
:1000C0000000002010080402003E5149453E000097
:1000D000427F4000004261514946002141454B3179
:1000E000001814127F10002745454539003C4A4945
:1000F00049300001710905030036494949360006B7
:100100004949291E0000363600000000563600001E
:100110000008142241000014141414140000412299
:10012000140800020151090600324959513E007C71
:100130001211127C007F49494936003E414141225B
:10014000007F4141221C007F49494941007F090944
:100150000901003E4149497A007F0808087F0000F4
:10016000417F4100002040413F01007F08142241AF
:10017000007F40404040007F020C027F007F040867
:10018000107F003E4141413E007F09090906003EC3
:100190004151215E007F09192946004649494931EC
:1001A0000001017F0101003F4040403F001F20400F
:1001B000201F003F4038403F0063140814630007CD
:1001C0000870080700615149454300007F41410024
:1001D00000552A552A55000041417F0000040201C4
:1001E00002040040404040400000010204000020A2
:1001F00054545478007F48444438003844444420E0
:1002000000384444487F00385454541800087E098C
:1002100001020018A4A4A47C007F08040478000054
:10022000447D4000004080847D00007F1028440011
:100230000000417F4000007C04180478007C080422
:10024000047800384444443800FC2424241800185E
:10025000242418FC007C080404080048545454204A
:1002600000043F444020003C4040207C001C2040D3
:10027000201C003C4030403C004428102844001C16
:10028000A0A0A07C004464544C44000008774100C6
:100290000000006300000000417708000008040827
:1002A0000804003A4040207A003D4040403D002193
:1002B00054545479007D1211127D0039444444395C
:1002C000003D4242423D000205020000007E01491D
:1002D0005573007C1010081C0000000800007F7F90
:1002E0007F7F7F7FAE2000B0C8001040813FA1A675
:1002F000A83FA4D300D5F0D922DA12DB208D140058
:1003000011241FBECFEFD8E0DEBFCDBF11E0A0E0CB
:10031000B1E0E2EDF6E002C005900D92A030B10729
:10032000D9F721E0A0E0B1E001C01D92A930B207E9
:10033000E1F70E94D5020C9467030C940000109220
:10034000B90088E48093B80084E08093BC000895ED
:1003500094EA9093BC00ECEBF0E090819923ECF7E9
:100360008093BB0084E88093BC00ECEBF0E08081DC
:100370008823ECF7089584E98093BC000895809366
:10038000BB0084E88093BC00ECEBF0E08081882324
:10039000ECF70895EF92FF920F931F93CF93DF93A3
:1003A0007C01162F88E70E94A80180E00E94BF010F
:1003B000112371F0E7011150012F10E00F5F1F4F63
:1003C0000E0D1F1D89910E94BF01C017D107D1F7E3
:1003D0000E94BB01DF91CF911F910F91FF90EF9091
:1003E0000895EF92FF920F931F93CF93DF937C01B9
:1003F0008B0188E70E94A80180E40E94BF010115DB
:10040000110549F0E7010E0D1F1D89910E94BF01E2
:10041000C017D107D1F70E94BB01DF91CF911F9187
:100420000F91FF90EF900895CF93DF9300D000D00D
:100430001F92CDB7DEB7863138F5683028F5982F92
:10044000990F890F880FE0E0F1E0808361836055A8
:10045000698391E29A8392E0980F9F709B8390E06A
:100460000296807F9927959587959595879595957F
:10047000879595958795805F8C838FE78D8365E061
:10048000CE0101960E94CA010F900F900F900F901D
:100490000F90DF91CF91089560E080E00E941402F8
:1004A00008951F93CF93DF93CDB7DEB7C058D1091E
:1004B0000FB6F894DEBF0FBECDBFFE01319680E8C7
:1004C000DF011D928A95E9F710E0612F80E00E941C
:1004D000140260E870E0CE0101960E94F1011F5FF6
:1004E000183099F70E944C02C058DF4F0FB6F894AD
:1004F000DEBF0FBECDBFDF91CF911F9108951F9337
:10050000CF93DF93CDB7DEB76C970FB6F894DEBF0D
:100510000FBECDBF182F0E949F01E4EEF2E0DE0176
:1005200011969E01245E3F4F84918D933196A217C0
:10053000B307D1F71C8F6CE1CE0101960E94CA016E
:100540000E9451026C960FB6F894DEBF0FBECDBF6D
:10055000DF91CF911F9108951F93CF93DF93EA010D
:100560006D5F919581959109865F0E94140288E7DD
:100570000E94A80180E40E94BF01CE01880F991F4C
:10058000C80FD91FCC0FDD1FC859DF4F10E0FE0187
:1005900084910E94BF011F5F21961630C1F70E940F
:1005A000BB01DF91CF911F9108958FEA0E947F02D6
:1005B0000CE710E0DD24D394CAE7D0E00F2EF8E773
:1005C000EF2EF12CF02D0F2EF3E5CF2EF02D0F2E68
:1005D000F2E79F2EF02D0F2EF2E5BF2EF02D0F2EFD
:1005E000F6E68F2EF02D0F2EF6E4AF2EF02DF8014B
:1005F00080818D258083888180648883888186FDC1
:10060000FDCFF7012081318130930801209307014C
:10061000A1E7B0EE0E945803880F892F881F990B1D
:100620009195835080930401F80180818D2580830A
:10063000888180648883888186FDFDCFF7012081D1
:100640003181309303012093020136952795ABE762
:10065000B4E10E945803969587958A5080930501CE
:10066000823078F480910401843018F0A092060161
:1006700016C0823018F08092060111C0C0920601A7
:100680000EC090910401992341F0863018F0B09289
:10069000060105C09092060102C0C092060147E71C
:1006A00050E063E070E080E090E00E94AC029FCFF9
:1006B000A29FB001B39FC001A39F700D811D1124A3
:1006C000911DB29F700D811D1124911D0895F89404
:0206D000FFCF5A
:00000001FF
